{
  "_format": "hh3-artifact-1",
  "contractName": "IssuerRegistry",
  "sourceName": "contracts/IssuerRegistry.sol",
  "abi": [
    {
      "inputs": [],
      "stateMutability": "nonpayable",
      "type": "constructor"
    },
    {
      "anonymous": false,
      "inputs": [
        {
          "indexed": true,
          "internalType": "address",
          "name": "issuer",
          "type": "address"
        }
      ],
      "name": "IssuerApproved",
      "type": "event"
    },
    {
      "anonymous": false,
      "inputs": [
        {
          "indexed": true,
          "internalType": "address",
          "name": "issuer",
          "type": "address"
        }
      ],
      "name": "IssuerReinstated",
      "type": "event"
    },
    {
      "anonymous": false,
      "inputs": [
        {
          "indexed": true,
          "internalType": "address",
          "name": "issuer",
          "type": "address"
        }
      ],
      "name": "IssuerSuspended",
      "type": "event"
    },
    {
      "inputs": [],
      "name": "admin",
      "outputs": [
        {
          "internalType": "address",
          "name": "",
          "type": "address"
        }
      ],
      "stateMutability": "view",
      "type": "function"
    },
    {
      "inputs": [
        {
          "internalType": "address",
          "name": "_issuer",
          "type": "address"
        }
      ],
      "name": "approveIssuer",
      "outputs": [],
      "stateMutability": "nonpayable",
      "type": "function"
    },
    {
      "inputs": [
        {
          "internalType": "address",
          "name": "_issuer",
          "type": "address"
        }
      ],
      "name": "isIssuerApproved",
      "outputs": [
        {
          "internalType": "bool",
          "name": "",
          "type": "bool"
        }
      ],
      "stateMutability": "view",
      "type": "function"
    },
    {
      "inputs": [
        {
          "internalType": "address",
          "name": "_issuer",
          "type": "address"
        }
      ],
      "name": "reinstateIssuer",
      "outputs": [],
      "stateMutability": "nonpayable",
      "type": "function"
    },
    {
      "inputs": [
        {
          "internalType": "address",
          "name": "_issuer",
          "type": "address"
        }
      ],
      "name": "suspendIssuer",
      "outputs": [],
      "stateMutability": "nonpayable",
      "type": "function"
    }
  ],
  "bytecode": "0x6080604052348015600e575f5ffd5b505f80546001600160a01b031916331790556104078061002d5f395ff3fe608060405234801561000f575f5ffd5b5060043610610055575f3560e01c806371dc2a9a1461005957806382deb86e14610081578063881b6f0214610096578063add98e1e146100a9578063f851a440146100bc575b5f5ffd5b61006c610067366004610381565b6100e6565b60405190151581526020015b60405180910390f35b61009461008f366004610381565b610130565b005b6100946100a4366004610381565b6101ed565b6100946100b7366004610381565b6102b9565b5f546100ce906001600160a01b031681565b6040516001600160a01b039091168152602001610078565b6001600160a01b0381165f9081526001602052604081205460ff16801561012a57506001600160a01b0382165f90815260016020526040902054610100900460ff16155b92915050565b5f546001600160a01b031633146101625760405162461bcd60e51b8152600401610159906103ae565b60405180910390fd5b6040805160608101825260018082525f6020808401828152428587019081526001600160a01b0388168085529285905286842095518654925161ffff1990931690151561ff001916176101009215159290920291909117855551939092019290925591517f98733e3bf5d792e3092c41611bfc6e1257e92ee3606413ec61366471eabd9ad99190a250565b5f546001600160a01b031633146102165760405162461bcd60e51b8152600401610159906103ae565b6001600160a01b0381165f9081526001602052604090205460ff1661026c5760405162461bcd60e51b815260206004820152600c60248201526b139bdd08185c1c1c9bdd995960a21b6044820152606401610159565b6001600160a01b0381165f81815260016020526040808220805461ff001916610100179055517f0c0223513169ae4317ba95b02f37c5f1c0506475f1b46cdcfd29bf96b0f0c1139190a250565b5f546001600160a01b031633146102e25760405162461bcd60e51b8152600401610159906103ae565b6001600160a01b0381165f9081526001602052604090205460ff166103385760405162461bcd60e51b815260206004820152600c60248201526b139bdd08185c1c1c9bdd995960a21b6044820152606401610159565b6001600160a01b0381165f81815260016020526040808220805461ff0019169055517f8241f2da5c40089bf9bade2bb885dbceb900c53ee229a2557dd66f74f1bc3f8e9190a250565b5f60208284031215610391575f5ffd5b81356001600160a01b03811681146103a7575f5ffd5b9392505050565b6020808252600990820152682737ba1030b236b4b760b91b60408201526060019056fea2646970667358221220e95a027767bbee1e04ace71e98abf8a68853ddef4c4311c1432e53d8b252768464736f6c634300081c0033",
  "linkReferences": {},
  "deployedLinkReferences": {},
  "immutableReferences": {},
  "inputSourceName": "project/contracts/IssuerRegistry.sol",
  "buildInfoId": "solc-0_8_28-974f02a1bb5a5ad52013fa43374ed85dc0b053e7"
}