{
  "_format": "hh3-artifact-1",
  "contractName": "ExamRegistry",
  "sourceName": "contracts/ExamRegistry.sol",
  "abi": [
    {
      "inputs": [
        {
          "internalType": "address",
          "name": "_issuerRegistryAddress",
          "type": "address"
        }
      ],
      "stateMutability": "nonpayable",
      "type": "constructor"
    },
    {
      "anonymous": false,
      "inputs": [
        {
          "indexed": true,
          "internalType": "uint256",
          "name": "examId",
          "type": "uint256"
        },
        {
          "indexed": true,
          "internalType": "address",
          "name": "issuer",
          "type": "address"
        },
        {
          "indexed": false,
          "internalType": "uint256",
          "name": "timestamp",
          "type": "uint256"
        }
      ],
      "name": "ExamDeactivated",
      "type": "event"
    },
    {
      "anonymous": false,
      "inputs": [
        {
          "indexed": true,
          "internalType": "uint256",
          "name": "examId",
          "type": "uint256"
        },
        {
          "indexed": true,
          "internalType": "address",
          "name": "issuer",
          "type": "address"
        },
        {
          "indexed": false,
          "internalType": "string",
          "name": "ipfsHash",
          "type": "string"
        },
        {
          "indexed": false,
          "internalType": "uint256",
          "name": "timestamp",
          "type": "uint256"
        }
      ],
      "name": "ExamPublished",
      "type": "event"
    },
    {
      "inputs": [
        {
          "internalType": "uint256",
          "name": "_examId",
          "type": "uint256"
        }
      ],
      "name": "deactivateExam",
      "outputs": [],
      "stateMutability": "nonpayable",
      "type": "function"
    },
    {
      "inputs": [
        {
          "internalType": "uint256",
          "name": "",
          "type": "uint256"
        }
      ],
      "name": "exams",
      "outputs": [
        {
          "internalType": "uint256",
          "name": "id",
          "type": "uint256"
        },
        {
          "internalType": "address",
          "name": "issuer",
          "type": "address"
        },
        {
          "internalType": "string",
          "name": "ipfsHash",
          "type": "string"
        },
        {
          "internalType": "uint256",
          "name": "publishedAt",
          "type": "uint256"
        },
        {
          "internalType": "bool",
          "name": "active",
          "type": "bool"
        }
      ],
      "stateMutability": "view",
      "type": "function"
    },
    {
      "inputs": [
        {
          "internalType": "uint256",
          "name": "_examId",
          "type": "uint256"
        }
      ],
      "name": "getExam",
      "outputs": [
        {
          "components": [
            {
              "internalType": "uint256",
              "name": "id",
              "type": "uint256"
            },
            {
              "internalType": "address",
              "name": "issuer",
              "type": "address"
            },
            {
              "internalType": "string",
              "name": "ipfsHash",
              "type": "string"
            },
            {
              "internalType": "uint256",
              "name": "publishedAt",
              "type": "uint256"
            },
            {
              "internalType": "bool",
              "name": "active",
              "type": "bool"
            }
          ],
          "internalType": "struct ExamRegistry.Exam",
          "name": "",
          "type": "tuple"
        }
      ],
      "stateMutability": "view",
      "type": "function"
    },
    {
      "inputs": [],
      "name": "issuerRegistry",
      "outputs": [
        {
          "internalType": "contract IIssuerRegistry",
          "name": "",
          "type": "address"
        }
      ],
      "stateMutability": "view",
      "type": "function"
    },
    {
      "inputs": [],
      "name": "nextExamId",
      "outputs": [
        {
          "internalType": "uint256",
          "name": "",
          "type": "uint256"
        }
      ],
      "stateMutability": "view",
      "type": "function"
    },
    {
      "inputs": [
        {
          "internalType": "string",
          "name": "_ipfsHash",
          "type": "string"
        }
      ],
      "name": "publishExam",
      "outputs": [],
      "stateMutability": "nonpayable",
      "type": "function"
    }
  ],
  "bytecode": "0x6080604052348015600e575f5ffd5b50604051610a0f380380610a0f833981016040819052602b91604f565b600280546001600160a01b0319166001600160a01b0392909216919091179055607a565b5f60208284031215605e575f5ffd5b81516001600160a01b03811681146073575f5ffd5b9392505050565b610988806100875f395ff3fe608060405234801561000f575f5ffd5b5060043610610060575f3560e01c8063044caf311461006457806320d840d3146100795780634198cb3f146100945780634c0f1161146100b85780638bfc1851146100cb578063f97563d5146100f6575b5f5ffd5b610077610072366004610630565b610116565b005b6100815f5481565b6040519081526020015b60405180910390f35b6100a76100a236600461069e565b610342565b60405161008b9594939291906106e3565b6100776100c636600461069e565b610405565b6002546100de906001600160a01b031681565b6040516001600160a01b03909116815260200161008b565b61010961010436600461069e565b61050f565b60405161008b9190610725565b6002546040516338ee154d60e11b81523360048201526001600160a01b03909116906371dc2a9a90602401602060405180830381865afa15801561015c573d5f5f3e3d5ffd5b505050506040513d601f19601f82011682018060405250810190610180919061077e565b6101d15760405162461bcd60e51b815260206004820152601960248201527f4e6f7420617070726f766564206f722073757370656e6465640000000000000060448201526064015b60405180910390fd5b806102125760405162461bcd60e51b8152602060048201526011602482015270092dcecc2d8d2c84092a08ca640d0c2e6d607b1b60448201526064016101c8565b6040518060a001604052805f548152602001336001600160a01b0316815260200183838080601f0160208091040260200160405190810160405280939291908181526020018383808284375f920182905250938552505042602080850191909152600160409485018190528354845280825292849020855181559085015192810180546001600160a01b0319166001600160a01b0390941693909317909255509082015160028201906102c5908261083c565b50606082015160038201556080909101516004909101805460ff19169115159190911790555f546040513391907f2deb6c3e008f0495e699c77b9b55e9cea1de4819ba844eb16eb64c897495b5ca90610323908690869042906108f7565b60405180910390a35f805490806103398361092e565b91905055505050565b600160208190525f91825260409091208054918101546002820180546001600160a01b039092169291610374906107b8565b80601f01602080910402602001604051908101604052809291908181526020018280546103a0906107b8565b80156103eb5780601f106103c2576101008083540402835291602001916103eb565b820191905f5260205f20905b8154815290600101906020018083116103ce57829003601f168201915b50505050600383015460049093015491929160ff16905085565b5f818152600160208190526040909120015481906001600160a01b031633146104625760405162461bcd60e51b815260206004820152600f60248201526e2737ba1032bc30b69034b9b9bab2b960891b60448201526064016101c8565b5f8281526001602052604090206004015460ff166104b55760405162461bcd60e51b815260206004820152601060248201526f416c726561647920696e61637469766560801b60448201526064016101c8565b5f8281526001602052604090819020600401805460ff1916905551339083907f51b31abff382bf3b9f4e2f0a00e9bac9ff7300d93cb2ddaa0307bc5da2162634906105039042815260200190565b60405180910390a35050565b6105486040518060a001604052805f81526020015f6001600160a01b03168152602001606081526020015f81526020015f151581525090565b5f82815260016020818152604092839020835160a08101855281548152928101546001600160a01b0316918301919091526002810180549293919291840191610590906107b8565b80601f01602080910402602001604051908101604052809291908181526020018280546105bc906107b8565b80156106075780601f106105de57610100808354040283529160200191610607565b820191905f5260205f20905b8154815290600101906020018083116105ea57829003601f168201915b50505091835250506003820154602082015260049091015460ff16151560409091015292915050565b5f5f60208385031215610641575f5ffd5b823567ffffffffffffffff811115610657575f5ffd5b8301601f81018513610667575f5ffd5b803567ffffffffffffffff81111561067d575f5ffd5b85602082840101111561068e575f5ffd5b6020919091019590945092505050565b5f602082840312156106ae575f5ffd5b5035919050565b5f81518084528060208401602086015e5f602082860101526020601f19601f83011685010191505092915050565b8581526001600160a01b038516602082015260a0604082018190525f9061070c908301866106b5565b6060830194909452509015156080909101529392505050565b602081528151602082015260018060a01b0360208301511660408201525f604083015160a0606084015261075c60c08401826106b5565b9050606084015160808401526080840151151560a08401528091505092915050565b5f6020828403121561078e575f5ffd5b8151801515811461079d575f5ffd5b9392505050565b634e487b7160e01b5f52604160045260245ffd5b600181811c908216806107cc57607f821691505b6020821081036107ea57634e487b7160e01b5f52602260045260245ffd5b50919050565b601f82111561083757805f5260205f20601f840160051c810160208510156108155750805b601f840160051c820191505b81811015610834575f8155600101610821565b50505b505050565b815167ffffffffffffffff811115610856576108566107a4565b61086a8161086484546107b8565b846107f0565b6020601f82116001811461089c575f83156108855750848201515b5f19600385901b1c1916600184901b178455610834565b5f84815260208120601f198516915b828110156108cb57878501518255602094850194600190920191016108ab565b50848210156108e857868401515f19600387901b60f8161c191681555b50505050600190811b01905550565b60408152826040820152828460608301375f606084830101525f6060601f19601f8601168301019050826020830152949350505050565b5f6001820161094b57634e487b7160e01b5f52601160045260245ffd5b506001019056fea2646970667358221220b6b5775786e64dd0f3f262a4602a946513df539ff204d8db1793944ef1f3861b64736f6c634300081c0033",
  "linkReferences": {},
  "deployedLinkReferences": {},
  "immutableReferences": {},
  "inputSourceName": "project/contracts/ExamRegistry.sol",
  "buildInfoId": "solc-0_8_28-0c2160660079d96545f5c5824bad6ef9b26a9593"
}