{
  "_format": "hh3-artifact-1",
  "contractName": "ResultRegistry",
  "sourceName": "contracts/ResultRegistry.sol",
  "abi": [
    {
      "inputs": [
        {
          "internalType": "address",
          "name": "_examRegistryAddress",
          "type": "address"
        }
      ],
      "stateMutability": "nonpayable",
      "type": "constructor"
    },
    {
      "anonymous": false,
      "inputs": [
        {
          "indexed": true,
          "internalType": "uint256",
          "name": "resultId",
          "type": "uint256"
        },
        {
          "indexed": true,
          "internalType": "address",
          "name": "issuer",
          "type": "address"
        },
        {
          "indexed": false,
          "internalType": "uint256",
          "name": "timestamp",
          "type": "uint256"
        }
      ],
      "name": "ResultDeactivated",
      "type": "event"
    },
    {
      "anonymous": false,
      "inputs": [
        {
          "indexed": true,
          "internalType": "uint256",
          "name": "resultId",
          "type": "uint256"
        },
        {
          "indexed": true,
          "internalType": "uint256",
          "name": "examId",
          "type": "uint256"
        },
        {
          "indexed": true,
          "internalType": "address",
          "name": "issuer",
          "type": "address"
        },
        {
          "indexed": false,
          "internalType": "string",
          "name": "ipfsHash",
          "type": "string"
        },
        {
          "indexed": false,
          "internalType": "uint256",
          "name": "timestamp",
          "type": "uint256"
        }
      ],
      "name": "ResultPublished",
      "type": "event"
    },
    {
      "inputs": [
        {
          "internalType": "uint256",
          "name": "_resultId",
          "type": "uint256"
        }
      ],
      "name": "deactivateResult",
      "outputs": [],
      "stateMutability": "nonpayable",
      "type": "function"
    },
    {
      "inputs": [],
      "name": "examRegistry",
      "outputs": [
        {
          "internalType": "contract IExamRegistry",
          "name": "",
          "type": "address"
        }
      ],
      "stateMutability": "view",
      "type": "function"
    },
    {
      "inputs": [
        {
          "internalType": "uint256",
          "name": "_resultId",
          "type": "uint256"
        }
      ],
      "name": "getResult",
      "outputs": [
        {
          "components": [
            {
              "internalType": "uint256",
              "name": "id",
              "type": "uint256"
            },
            {
              "internalType": "uint256",
              "name": "examId",
              "type": "uint256"
            },
            {
              "internalType": "address",
              "name": "issuer",
              "type": "address"
            },
            {
              "internalType": "string",
              "name": "ipfsHash",
              "type": "string"
            },
            {
              "internalType": "uint256",
              "name": "publishedAt",
              "type": "uint256"
            },
            {
              "internalType": "bool",
              "name": "active",
              "type": "bool"
            }
          ],
          "internalType": "struct ResultRegistry.Result",
          "name": "",
          "type": "tuple"
        }
      ],
      "stateMutability": "view",
      "type": "function"
    },
    {
      "inputs": [],
      "name": "nextResultId",
      "outputs": [
        {
          "internalType": "uint256",
          "name": "",
          "type": "uint256"
        }
      ],
      "stateMutability": "view",
      "type": "function"
    },
    {
      "inputs": [
        {
          "internalType": "uint256",
          "name": "_examId",
          "type": "uint256"
        },
        {
          "internalType": "string",
          "name": "_ipfsHash",
          "type": "string"
        }
      ],
      "name": "publishResult",
      "outputs": [],
      "stateMutability": "nonpayable",
      "type": "function"
    },
    {
      "inputs": [
        {
          "internalType": "uint256",
          "name": "",
          "type": "uint256"
        }
      ],
      "name": "results",
      "outputs": [
        {
          "internalType": "uint256",
          "name": "id",
          "type": "uint256"
        },
        {
          "internalType": "uint256",
          "name": "examId",
          "type": "uint256"
        },
        {
          "internalType": "address",
          "name": "issuer",
          "type": "address"
        },
        {
          "internalType": "string",
          "name": "ipfsHash",
          "type": "string"
        },
        {
          "internalType": "uint256",
          "name": "publishedAt",
          "type": "uint256"
        },
        {
          "internalType": "bool",
          "name": "active",
          "type": "bool"
        }
      ],
      "stateMutability": "view",
      "type": "function"
    }
  ],
  "bytecode": "0x6080604052348015600e575f5ffd5b50604051610b87380380610b87833981016040819052602b91604f565b600280546001600160a01b0319166001600160a01b0392909216919091179055607a565b5f60208284031215605e575f5ffd5b81516001600160a01b03811681146073575f5ffd5b9392505050565b610b00806100875f395ff3fe608060405234801561000f575f5ffd5b5060043610610060575f3560e01c80631b0c27da146100645780634ce187cf146100925780636799383f146100bd5780637214e655146100d2578063970a8f05146100e8578063995e4339146100fb575b5f5ffd5b6100776100723660046106ac565b61011b565b604051610089969594939291906106f1565b60405180910390f35b6002546100a5906001600160a01b031681565b6040516001600160a01b039091168152602001610089565b6100d06100cb366004610737565b6101e4565b005b6100da5f5481565b604051908152602001610089565b6100d06100f63660046106ac565b610470565b61010e6101093660046106ac565b610578565b60405161008991906107ae565b600160208190525f9182526040909120805491810154600282015460038301805492936001600160a01b039092169261015390610811565b80601f016020809104026020016040519081016040528092919081815260200182805461017f90610811565b80156101ca5780601f106101a1576101008083540402835291602001916101ca565b820191905f5260205f20905b8154815290600101906020018083116101ad57829003601f168201915b50505050600483015460059093015491929160ff16905086565b60025460405163f97563d560e01b81526004810185905284915f9182916001600160a01b03169063f97563d5906024015f60405180830381865afa15801561022e573d5f5f3e3d5ffd5b505050506040513d5f823e601f3d908101601f191682016040526102559190810190610871565b945050509250508061029e5760405162461bcd60e51b815260206004820152600d60248201526c4578616d20696e61637469766560981b60448201526064015b60405180910390fd5b6001600160a01b03821633146102e85760405162461bcd60e51b815260206004820152600f60248201526e2737ba1032bc30b69034b9b9bab2b960891b6044820152606401610295565b836103295760405162461bcd60e51b8152602060048201526011602482015270092dcecc2d8d2c84092a08ca640d0c2e6d607b1b6044820152606401610295565b6040518060c001604052805f548152602001878152602001336001600160a01b0316815260200186868080601f0160208091040260200160405190810160405280939291908181526020018383808284375f92018290525093855250504260208085019190915260016040948501819052835484528082529284902085518155908501519281019290925550908201516002820180546001600160a01b0319166001600160a01b03909216919091179055606082015160038201906103ee90826109b4565b506080820151600482015560a0909101516005909101805460ff19169115159190911790555f54604051339188917f3f0094199d5691202ae14675db4b4f07f58bb60e40e8b6cdb214c0774a80fa699061044d908a908a904290610a6f565b60405180910390a45f8054908061046383610aa6565b9190505550505050505050565b5f818152600160205260409020600201546001600160a01b031633146104cc5760405162461bcd60e51b81526020600482015260116024820152702737ba103932b9bab63a1034b9b9bab2b960791b6044820152606401610295565b5f8181526001602052604090206005015460ff1661051f5760405162461bcd60e51b815260206004820152601060248201526f416c726561647920696e61637469766560801b6044820152606401610295565b5f8181526001602052604090819020600501805460ff1916905551339082907fc0bdff6053ca5e16c27b34ee24b1dbc65d586867b47984d57d03057d4bbf55ca9061056d9042815260200190565b60405180910390a350565b6105b76040518060c001604052805f81526020015f81526020015f6001600160a01b03168152602001606081526020015f81526020015f151581525090565b5f82815260016020818152604092839020835160c08101855281548152928101549183019190915260028101546001600160a01b03169282019290925260038201805491929160608401919061060c90610811565b80601f016020809104026020016040519081016040528092919081815260200182805461063890610811565b80156106835780601f1061065a57610100808354040283529160200191610683565b820191905f5260205f20905b81548152906001019060200180831161066657829003601f168201915b50505091835250506004820154602082015260059091015460ff16151560409091015292915050565b5f602082840312156106bc575f5ffd5b5035919050565b5f81518084528060208401602086015e5f602082860101526020601f19601f83011685010191505092915050565b86815285602082015260018060a01b038516604082015260c060608201525f61071d60c08301866106c3565b60808301949094525090151560a090910152949350505050565b5f5f5f60408486031215610749575f5ffd5b83359250602084013567ffffffffffffffff811115610766575f5ffd5b8401601f81018613610776575f5ffd5b803567ffffffffffffffff81111561078c575f5ffd5b86602082840101111561079d575f5ffd5b939660209190910195509293505050565b60208152815160208201526020820151604082015260018060a01b0360408301511660608201525f606083015160c060808401526107ef60e08401826106c3565b9050608084015160a084015260a0840151151560c08401528091505092915050565b600181811c9082168061082557607f821691505b60208210810361084357634e487b7160e01b5f52602260045260245ffd5b50919050565b634e487b7160e01b5f52604160045260245ffd5b8051801515811461086c575f5ffd5b919050565b5f5f5f5f5f60a08688031215610885575f5ffd5b855160208701519095506001600160a01b03811681146108a3575f5ffd5b604087015190945067ffffffffffffffff8111156108bf575f5ffd5b8601601f810188136108cf575f5ffd5b805167ffffffffffffffff8111156108e9576108e9610849565b604051601f8201601f19908116603f0116810167ffffffffffffffff8111828210171561091857610918610849565b6040528181528282016020018a101561092f575f5ffd5b8160208401602083015e5f918101602001919091526060880151909450925061095c90506080870161085d565b90509295509295909350565b601f8211156109af57805f5260205f20601f840160051c8101602085101561098d5750805b601f840160051c820191505b818110156109ac575f8155600101610999565b50505b505050565b815167ffffffffffffffff8111156109ce576109ce610849565b6109e2816109dc8454610811565b84610968565b6020601f821160018114610a14575f83156109fd5750848201515b5f19600385901b1c1916600184901b1784556109ac565b5f84815260208120601f198516915b82811015610a435787850151825560209485019460019092019101610a23565b5084821015610a6057868401515f19600387901b60f8161c191681555b50505050600190811b01905550565b60408152826040820152828460608301375f606084830101525f6060601f19601f8601168301019050826020830152949350505050565b5f60018201610ac357634e487b7160e01b5f52601160045260245ffd5b506001019056fea2646970667358221220b7fcf8b72cec00d248d512350cadb9d119dc135df41ca668c8d66ada1ce74df064736f6c634300081c0033",
  "linkReferences": {},
  "deployedLinkReferences": {},
  "immutableReferences": {},
  "inputSourceName": "project/contracts/ResultRegistry.sol",
  "buildInfoId": "solc-0_8_28-691f9b6e45d163ba2f00db60b8f5d2813061e8bf"
}